S01100004F50335341542831292E73726563D7
S1130000E02300201D010000190100001901000077
S113001000000000000000000000000000000000DC
S1130020000000000000000000000000691D000046
S11300300000000000000000D11D0000151E00009B
S11300401901000019010000190100001901000044
S1130050FD11000021130000190100001901000026
S11300601901000019010000C51500001901000064
S113007019010000DD1B0000F11B00001901000044
S11300801901000019010000190100001901000004
S113009019010000190100001901000019010000F4
S11300A01901000010B5064C2378002B07D1054B2D
S11300B0002B02D0044800E000BF0123237010BDD0
S11300C0080100200000000028240000084B10B59F
S11300D0002B03D00749084800E000BF0748036825
S11300E0002B00D110BD064B002BFBD09847F9E73D
S11300F0000000000C010020282400002824000037
S11301000000000010B5024B9847024B984710BD01
S113011009050000191C0000FEE7000010B5124A92
S1130120124B9A4209D0114B0F4A03E0116819602F
S1130130043304320E498B42F8D30E4B02E0002202
S11301401A6004330C4A9342F9D30C4AFF210C4B36
S11301508B4393600B4A516880230B4353600A4BD3
S113016098470A4B9847FEE7282400000000002027
S11301700801002008010020E003002000ED00E059
S1130180000000000040004141210000051C000067
S1130190044A116A80231B030B431362024A034B74
S11301A05A807047000400401B400000000C0040CF
S11301B010B5084A116A80239B000B431362064A58
S11301C0064B5A80064B9847020006490648074BDF
S11301D0984710BD0004004013400000000C00408C
S11301E0D51B000000240042C4030020090A0000BB
S11301F0044A116A80235B020B431362024A034BD5
S11302005A8070470004004017400000000C004072
S113021010B5044B9847002203490448044B9847FF
S113022010BDC046F1010000004000429C030020C4
S1130230D105000010B5034A034B5A80034B98477D
S113024010BDC04603400000000C0040CD06000075
S1130250024AD36904210B43D36170470004004070
S113026010B5034B984703490348044B984710BD06
S113027051020000004000417C03002019070000E7
S1130280F0B5CE46474680B5C022D205012454615C
S11302909460254B25499962C0273F069F62402000
S11302A0195CA14301252943C9B219543026995D2B
S11302B0313881468143884603218C466146404655
S11302C00843C1B29955022151619160184999625C
S11302D09F624127D95DA1432943C9B2D955995D8C
S11302E0323F394030273943C9B299558021C90278
S11302F05160104A9A62104A9A6252215A5C2C3E0A
S1130300B2435A545A5CA2432A43D2B25A541939BA
S11303105A5C4846824302200243D2B25A540CBC6F
S113032090469946F0BDC04600440041010000409B
S11303300200004000000240040002C0044A136AA4
S113034008210B431362034A034B5A807047C0468B
S1130350000400400E400000000C004010B5044BA7
S1130360984704490448054B9847054B984710BDE6
S11303703D030000000C0042AC03002035080000DF
S113038081020000044A136A20210B431362034ACA
S1130390034B5A807047C0460004004010400000E0
S11303A0000C004030B50F4B5822995C0125A9433D
S11303B001242143C9B299543C20195C493A914320
S11303C002221143C9B2195459215A5CAA43224347
S11303D0D2B25A541A5C4A390A4020210A43D2B292
S11303E01A5430BD0044004110B582B0064B984702
S11303F0002300931033054A05490648064CA047DC
S1130400064B984702B010BD85030000240100206C
S11304100014004210030020B90B0000A5030000E3
S113042010B50248024B984710BDC04610E000E0EA
S113043075060000044A116A80235B000B431362B3
S1130440024A034B5A8070470004004013400000E6
S1130450000C004010B5054B9847054B9847020027
S113046004490548054B984710BDC04635040000B3
S1130470D91B00000020004260030020ED070000AB
S1130480054A116A80239B020B431362034B044AFF
S11304905A80044A5A80704700040040000C00400F
S11304A0184000001940000010B5034B9847034959
S11304B00348044B984710BD8104000000440042E7
S11304C09803002099050000044A116A8023DB0286
S11304D00B431362024A034B5A80704700040040E6
S11304E01A400000000C004010B5034B9847034924
S11304F00348044B984710BDC9040000004800425B
S1130500A00300202506000010B5154B9847C02213
S1130510D2058021C90151619160124B1248986241
S1130520C0200006986251614E215A5C012082432A
S11305305A540E4B98470E4B98470E4B98470E4B08
S113054098470E4B98470E4B98470E4B98470E4BC7
S113055098470E4B98470E4B98470E4B984710BD43
S1130560CD10000000440041004000401102000092
S113057035020000610200005D030000E903000091
S11305802104000055040000B1010000A90400008A
S1130590E90400009101000070B504000D0000287A
S11305A00DD0002909D0012031220649064B984775
S11305B029002000054B984770BD0020F4E7002077
S11305C0F2E7C046AC210000F90C00001D0F00004A
S11305D070B504000D0000280DD0002909D00120B9
S11305E039220649064B984729002000054B9847B5
S11305F070BD0020F4E70020F2E7C046C8210000E7
S1130600F90C000095100000EFF31083036072B63C
S1130610BFF35F8F7047BFF35F8F036883F3108866
S11306207047000070B504000D00002810D00029A8
S11306300CD0012032220C490C4B98472900200091
S11306400B4B984700280ED100230AE00020F1E765
S11306500020EFE7DA00A218002151609160013315
S1130660DBB2002BF6D070BDE4210000F90C0000D1
S11306704111000010B5024B1860024B984710BDA1
S113068034010020ED18000070B50125002407E0B6
S11306900D4AB358002B00D0984770BD013AD5B22B
S11306A0AC42FAD82B195B10DAB2002AF5D1FF213B
S11306B00B40DE000449891949688142E8D0EDD233
S11306C00132D4B2ECE7C0463801002010B5002353
S11306D0002B03D00748084B984710BD074AD900A0
S11306E050180124644244600020885001339BB2B6
S11306F0EEE7C046890600006D11000038010020B5
S113070010B54369002B00D0984710BD10B583691C
S1130710002B00D0984710BD70B504000D000028D0
S113072013D000290FD0012038220949094B9847DA
S113073029002000084B9847002803D1074B236069
S1130740074B636070BD0020EEE70020ECE7C04675
S113075000220000F90C0000C11200000107000093
S11307600D07000070B504000D00160000280ED01F
S113077000290AD0012034220649074B98472368F0
S1130780320029002000984770BD0020F3E70020C4
S1130790F1E7C04618220000F90C000070B504000F
S11307A00D00160000280ED000290AD001203D2299
S11307B00649074B98476368320029002000984790
S11307C070BD0020F3E70020F1E7C04618220000C6
S11307D0F90C000010B54369002B00D0984710BDF8
S11307E010B58369002B00D0984710BD70B5040084
S11307F00D00002812D000290ED001203322084910
S1130800084B984729002000074B9847074B236063
S1130810074B6360002070BD0020EFE70020EDE788
S11308202C220000F90C0000E11A0000D50700009A
S1130830E107000070B504000D00002817D000295E
S113084013D0012040220B490B4B98476560201DB3
S113085029000A4B9847002806DB094BA382094B61
S11308602361094BE360002070BD0020EAE700200B
S1130870E8E7C04644220000F90C0000D915000046
S11308800080FFFF11090000D508000030B587B0D3
S113089004000D00002815D0002911D00120B32236
S11308A009490A4B98472B6803936B680493AB6818
S11308B001930593201D03A9054B984707B030BD4C
S11308C00020ECE70020EAE744220000F90C0000D5
S11308D09517000070B584B004000E001500431E87
S11308E09841C0B2A3220749074B984720000C380F
S11308F0002302930196039501A9044B984704B081
S113090070BDC04644220000F90C00008D080000B0
S113091070B584B004000E001500431E9841C0B2A7
S113092087220749074B984720000C38029600237A
S11309300193039501A9044B984704B070BDC046C8
S113094044220000F90C00008D080000F8B5066888
S1130950002E02D0330000250CE0104B984718E01D
S11309609F68BC466444A41A01348F68BC420BD20D
S11309701D001B68002B07D05C689442F0D8A41AB1
S11309809F68BC466444F0E7B34203D02800044B9C
S11309909847F8BD014B9847FBE7C046190D000086
S11309A0450D0000F8B50500446903695E1C066145
S11309B0037EDB0702D4037E9B070AD52B7E02222B
S11309C01343DBB22B76F8BD6F69E36820009847C8
S11309D03C00002CF7D06368F31AA2689342F2D368
S11309E02F0014373800064B9847237C012BEBD19A
S11309F06660320021003800024B9847E4E7C046A5
S1130A004D0D00004D09000070B504000D000028D4
S1130A1012D000290ED001203B220849084B9847E8
S1130A2029002000074B984700232361064B2360CD
S1130A30002070BD0020EFE70020EDE760220000F9
S1130A40F90C0000BD190000A509000010B5083814
S1130A5000230363436A002B00D0984710BD10B5F0
S1130A60083800230363C36A002B00D0984710BDE5
S1130A7010B504002C30044B9847236A083C002B23
S1130A8001D02000984710BDF90D000070B5040096
S1130A900E00150000281DD000291DD0002A1DD1EC
S1130AA000203C22FF321049104B98474423E25A5D
S1130AB00833E35A9A4213D1A6644C23E552002228
S1130AC0083BE252433B236320000830084B98471D
S1130AD0280070BD0020E4E70020E2E70120E0E701
S1130AE01C204042F5E7C04678220000F90C0000C3
S1130AF05315000070B504000200083A4423D35A89
S1130B004C21525A93420DD00200016C083A5D1CEC
S1130B1044201552C95C2000044B98472000044B24
S1130B20984770BD034B9847FBE7C0464B15000040
S1130B30531500005B150000F0B585B004000D00EE
S1130B401600002817D0002917D0002A17D100203A
S1130B50AC2252001249134B984703A8124B9847F2
S1130B60343420000194114B9847070003A8104B1C
S1130B70984700240BE00020EAE70020E8E7012082
S1130B80E6E70134A4B2691801980A4B984721009A
S1130B90A74201D9B442F4D3200005B0F0BDC04649
S1130BA078220000F90C000009060000390E00004C
S1130BB017060000AD0D0000F8B504000D00160086
S1130BC01F00002826D0002926D0002A26D0002B7A
S1130BD026D100203A221549154B9847200034307D
S1130BE03A003100134B984700281BD120000830ED
S1130BF02900114B984700280BD1104B6360104B10
S1130C002360104BA360104BE360104B2361104B27
S1130C106361F8BD0020DDE70020DBE70020D9E7B1
S1130C200120D7E70D204042F3E7C04678220000B8
S1130C30F90C0000610D0000AD140000390B000038
S1130C408D0A0000F50A0000710A00004D0A000038
S1130C505F0A000010B50400431E9841C0B261222F
S1130C600449054B984720000830044B984700205E
S1130C7010BDC04678220000F90C000039150000B0
S1130C8070B505000E001400431E9841C0B28322C3
S1130C901649174B9847012E11D0002E04D0022E6E
S1130CA018D00D20404209E0AC62621E9441E2B2C9
S1130CB02800083001210F4B9847002070BD6C625A
S1130CC0621E9441E2B2280008300221094B984781
S1130CD00020F3E7EC62621E9441E2B2280008307F
S1130CE00321044B98470020E8E7C046782200001F
S1130CF0F90C000065150000002800D100BE704703
S1130D000368002B03D08B4203D01B68F9E7002053
S1130D1070470120FCE7000070B504000D00064B8D
S1130D20984701235840C0B239220449044B9847DC
S1130D3023682B60256070BD010D0000982200001F
S1130D40F90C000003680B60016070470368002B16
S1130D5003D01A680260180070470020FCE7000006
S1130D6070B504000E001500002812D0002912D01E
S1130D70002A12D1002028220A490B4B98476B1EE7
S1130D802B420CD163600023A360E3602660002043
S1130D9070BD0020EFE70020EDE70120EBE70D2018
S1130DA04042F5E7B8220000F90C000070B50400D9
S1130DB00D00002816D0002912D0012040220C4931
S1130DC00C4B9847A368E2689A420DD062681340BE
S1130DD02268D35C2B70A3680133A360002070BD2C
S1130DE00020EBE70020E9E70A204042F7E7C0468D
S1130DF0B8220000F90C000070B504000D00431E79
S1130E009841C0B251220A490A4B98476368E26884
S1130E1013402268D554E368A2689A1A61688A422A
S1130E2001D9591AA1600133E360002070BDC046A6
S1130E30B8220000F90C000010B50400431E9841CC
S1130E40C0B267220349044B9847E068A368C01AFC
S1130E5010BDC046B8220000F90C000010B50023F4
S1130E60002B01D0002010BD9A00D2189100054A31
S1130E708A58824202D00133DBB2F1E701484018BC
S1130E80F1E7C046DC22000010B50400431E98417F
S1130E90C0B2FA221E491F4B984720001E4B9847A8
S1130EA0002831D0637ADB09FCD1637ADB09FCD1F9
S1130EB023789B0707D500232370637ADB09FCD1D1
S1130EC0637ADB09FCD101232370637ADB09FCD14B
S1130ED0637ADB09FCD183682361637ADB09FCD183
S1130EE0C3686361637ADB09FCD1027C2033E2547A
S1130EF0427C0133E254C388638043792370637A6C
S1130F00DB09FCD1002010BD0A204042FBE7C046AB
S1130F10F0220000F90C00005D0E000070B5050021
S1130F200C00431E9841C0B262220449044B984706
S1130F302C602000034B984770BDC046F02200008F
S1130F40F90C0000890E00000020704710B50B4B0F
S1130F50984702000020002806D07F22084900207C
S1130F60084B9847002010BDC3001B1A9900064B7C
S1130F70CB5C9A42F7D00130C0B2ECE7490F0000D5
S1130F8020230000F90C00000423000070B50400C5
S1130F900D003A4BC01843425841C0B2942238491C
S1130FA0384B9847384B1A68D2081202E023DB000A
S1130FB01A4036490B6849684901DB0E0B43FF218F
S1130FC00B401A43637EDB09FCD123789B0704D5CD
S1130FD000232370637EDB09FCD101232370637E2D
S1130FE0DB09FCD12285EA00521B9100284B5B18D7
S1130FF09A786270DA78A2701A79E2701A7C227593
S1131000DA8AA2841A8BE284997E2A22A154DB888C
S1131010A380637EDB09FCD1EB005B1B9A001C4BB5
S11310209B18DB682361637EDB09FCD1EB005B1B4F
S11310309A00174B9B181B7A2372637EDB09FCD141
S1131040EB005B1B9A00124B9B185B8AA383637EA5
S1131050DB09FCD1EB005B1B9A000D4B9B189B8AB0
S11310602384637EDB09FCD1EB005D1BAA00084BE3
S11310709B185B782370002070BDC04600C0FFBD84
S113108020230000F90C0000246080002060800010
S11310900423000070B505000C00431E9841C0B243
S11310A0C5220649064B98472C602000054B9847FB
S11310B001002000044B984770BDC0462023000067
S11310C0F90C00004D0F00008D0F000010B5064B09
S11310D05A685A60054B9847054B9847054B984703
S11310E0FF20054B984710BD0040004151130000FC
S11310F07D180000C9180000A1120000C379DB09A3
S1131100FCD1C379DB09FCD103789B0707D5002305
S11311100370C379DB09FCD1C379DB09FCD101235A
S11311200370C379DB09FCD1C379DB09FCD183707B
S1131130012242700370C379DB09FCD1002070479F
S113114070B505000C00431E9841C0B24922044901
S1131150044B98472C602000034B984770BDC04651
S113116038230000F90C0000FD100000204B5B78D0
S1131170DB09FBD11E4B5B78DB09FBD11C4B1B78D5
S11311809B070AD500221A4B1A70194B5B78DB09AE
S1131190FBD1174B5B78DB09FBD10122144B1A708E
S11311A0134B5B78DB09FBD1114B5B78DB09FBD17B
S11311B00F4B00229A705A605A619A61DA611A7868
S11311C002210A43D2B21A70094B5B78DB09FBD1C6
S11311D0084B102280215A50BFF34F8FBFF36F8FFB
S11311E00131FF315A501A60034B186000207047D8
S11311F00018004000E100E04001002030B583B059
S1131200214B1A69D9680A400192019A1A611F4B4D
S11312101868431E9841C0B2D2221D491D4B9847FD
S113122027E00139CDB2AC420DD82A195210D1B2FF
S1131230FF231340DB00184A9B5C834203D0F0DA9F
S11312400131CCB2EFE701228240019B9343019329
S11312500198124B9847013840B2431C02D0002534
S11312600024E0E7084B1A69D9680A400192019A00
S11312701A61019B002B05D00198084B984701384F
S113128040B2EAE703B030BD00180040400100203E
S113129058230000F90C000050230000ED2000004A
S11312A0C3070AD5054B802252009A60832252025A
S11312B05A60024B5B78DB09FBD17047000C00409D
S11312C070B505000C0000281CD0104B99421BD0AF
S11312D0002046220E490F4B98472C6162689E23DA
S11312E0134063600C4B1D600C4B202280215A502C
S11312F0BFF34F8FBFF36F8F0131FF315A501A6024
S1131300002070BD0020E4E70120E2E70040004136
S113131070230000F90C00004401002000E100E00B
S113132010B50A4B186803691A7DD20704D50368FF
S1131330002B00D0984710BD1A7D9207FBD50222DE
S11313401A754368002BF6D09847F4E7440100204F
S1131350064B1A7AD2B21A725A7AD2B25A729A7A5C
S1131360D2B29A72DA7AD2B2DA72704700040040CA
S1131370024B9C466044800AC0B2704700F8FFBD2F
S113138010B583699A7BD20702D55A7BD2070ED453
S11313909A7B920702D55A7B92070DD49A7B520707
S11313A004D51A8A52070CD0084A1A8210BD0122A9
S11313B01A7303689847F9E702221A7383689847F7
S11313C0F4E74268198BC9B29047EFE70780FFFF43
S11313D010B5024B98470730C0B210BD711300001E
S11313E0034B984200D07047024B1960FBE7C0469C
S11313F0001400424801002010B50A4B984703002E
S11314000020002806D0084A08490020084B9847C5
S1131410002010BD02010749525C9342F9D001300B
S1131420C0B2EEE7711300004E020000D8230000A2
S1131430F90C00009023000010B50400194B9847E4
S1131440238ADB0BFCD1238ADB0BFCD123689B07AB
S113145007D500232360238ADB0BFCD1238ADB0B13
S1131460FCD101232360238ADB0BFCD1238ADB0B11
S1131470FCD102010C4B9B185B682360238ADB0BB5
S1131480FCD10201084B9B189B686360238ADB0B29
S1131490FCD10001044B181883896381837B237278
S11314A0002010BDF91300009023000070B5060061
S11314B00C00431E9841C0B2B1221949194B9847F8
S11314C02000194B9847051E01D0280070BDB46157
S11314D031002000154B98472000154B984743B224
S11314E0002B0ADB1F21014001228A408021114C7C
S11314F06250BFF34F8FBFF36F8F002B07DB1F21A9
S1131500014001228A40C02149000A4C6250002B4C
S1131510DBDB1F2318401E3B8340064A1360D4E7DD
S1131520D8230000F90C000039140000E113000076
S1131530D113000000E100E08269136802210B432B
S11315401360138ADB0BFCD17047836989B219835A
S11315507047836901225A737047836902225A7360
S11315607047000070B504000D001600431E98413A
S1131570C0B2842292001149114B9847002D09D022
S1131580022D07D0012D0FD1A369002E13D0042200
S11315905A7309E0A369002E07D101221A73A369C3
S11315A0002E05D102221A7370BD01225A73F6E788
S11315B002225A73F8E704221A73F5E7D8230000CD
S11315C0F90C000010B5024B1868024B984710BD87
S11315D0480100208113000070B506000C000800CB
S11315E0624B98470023002B00D16CE00025002EAD
S11315F000D174E0002C00D16FE001205C4A5D4909
S11316005D4B9847002D00D1ACE0238ADB0BFCD165
S1131610238ADB0BFCD123689B0707D500232360B7
S1131620238ADB0BFCD1238ADB0BFCD1012323604F
S1131630238ADB0BFCD1238ADB0BFCD134602B78AF
S11316406A7812021A43AB781B041A43EB781B0620
S113165013431C221340082B43D0002C00D17DE0FF
S1131660002D00D178E00120444A4249424B98477A
S11316702B786A7812021A43AB781B041A43EB786E
S11316801B0613433E4A13402360238ADB0BFCD121
S11316902B796A7912021A43AB791B041A43EB794A
S11316A01B061343374A134080229202134363609C
S11316B02B7BA3726B7B23722B795B0750D10123A5
S11316C03371002070BD012802D00133DBB28AE7F8
S11316D01D012D4B38335D1989E700208EE700206A
S11316E08CE7002C36D0002D32D00120274A214926
S11316F0214B98472B786A7812021A43AB781B0463
S11317001A43EB781B0613431D4A13402360238AB4
S1131710DB0BFCD12B796A7912021A43AB791B04D7
S11317201A43EB791B061343194A134363602B7A5C
S11317306A7A12021A43AB7A1B041A43EB7A1B0629
S1131740134363616B7B2372238ADB0BFCD1B3E706
S11317500020CBE70020C9E7002085E7002083E7CD
S11317600223ADE70D204042ACE7C04671130000F0
S1131770CB080000D8230000F90C00009A080000F0
S1131780FCFEFFFFBF3FFDFF90230000AB080000FD
S11317904000020070B588B00D0004680B68039324
S11317A04B6804930023059306930679002814D00C
S11317B0002C10D001202D4A2D492E4B9847238A06
S11317C0DB0B4FD1238ADB0BFCD123689B0718D496
S11317D01420404244E00020EDE70020EBE7002223
S11317E026E0587800020143023303930132059244
S11317F089B221830598AB68984202D3069A934232
S113180029D9A37BDBB25A07E9D5228B92B204997A
S1131810002908D0481C04900A70012E03D9881CA2
S11318200490120A4A70069A019201320692012229
S1131830002ADFD10699059A9142DBD3DB07D9D57B
S1131840039B002B05D0591C03911978012EC8D88D
S1131850CCE70949CAE7A37B9B07FCD00323A37306
S113186008B070BD04204042FAE7C046290A0000CF
S1131870D8230000F90C0000FF0100000F4B196A87
S1131880090C1A6A920F920709040D4801400A4391
S11318900C490A431A629A6902210A439A611A7F1F
S11318A01D310A401A77054BDB681B07FBD5034A39
S11318B0136A80210B4313627047C046000800403E
S11318C00000FF0F02030000024A936902218B43C8
S11318D09361704700080040024B034A5A60052296
S11318E01A60704710E000E0FFFFFF0010B5014BE5
S11318F0984710BDD918000010B5C3689A7BD20769
S113190000D410BD01229A7303689847F9E770B5B3
S113191005000469A37BDB0705D50123A3730368D2
S1131920002B00D09847637B9B0706D50223A37343
S11319306B68002B01D02800984770BD024B9C4671
S11319406044800AC0B2704700E0FFBD064B984275
S113195003D0064B984203D07047054B1960F8E753
S1131960034B5960F8E7C0460020004200240042BF
S11319704C01002010B50D4B98470023012B0BD8C8
S11319809A00D21891000A4A8A5C904202D001332C
S1131990DBB2F3E758B207E0F822FF320549002032
S11319A0054B98470120404210BDC0463D19000038
S11319B000000020F4230000F90C000070B50600BC
S11319C00C0008003F4B98470500F4609F223E49F5
S11319D001203E4B9847E37BDB09FCD123889B071E
S11319E004D500232380E37BDB09FCD1012323807E
S11319F0E37BDB09FCD1AA0052199100344B5B183C
S1131A005A88228019792172DB8863810C23134060
S1131A10082B39D0002B43D12D4AAB005819810033
S1131A2008005118898921831218138A63830123BA
S1131A30637331002000274B98472000264B9847BA
S1131A400D30C0B243B2002B0ADB1F21014001223A
S1131A508A408021214C6250BFF34F8FBFF36F8FB8
S1131A60002B07DB1F21014001228A40C0214900CD
S1131A701A4C6250002B05DB1F2318401E3B834089
S1131A80164A1360002070BD114AAB00581981003A
S1131A9008005118C968A16112181369E361C6E707
S1131AA0042BC4D10A49AB00581982008A18107B50
S1131AB02076127C62765D19AB00C9180B7A237507
S1131AC0B5E7C04675190000F4230000F90C0000C6
S1131AD0000000204D1900003D19000000E100E065
S1131AE070B505000C000800354B98472C61E37B6A
S1131AF0DB09FCD123889B0704D500232380E37BE7
S1131B00DB09FCD101232380E37BDB09FCD18200C8
S1131B10121891002B4B5B185A8822801979217274
S1131B20DB8863810C231340082B37D0002B41D171
S1131B30244A83001E18B1000E005118898921839C
S1131B409219138A6383290020001F4B98472000B1
S1131B501E4B98470D30C0B243B2002B0ADB1F2145
S1131B60014001228A408021194C6250BFF34F8FFB
S1131B70BFF36F8F002B07DB1F21014001228A4036
S1131B80C0214900124C6250002B16DB1F23184061
S1131B901E3B83400E4A1360002070BD094A830037
S1131BA01E18B1000E005118C968A1619219136979
S1131BB0E361C8E701204042EFE70020EDE7C046BB
S1131BC075190000000000204D1900003D190000A7
S1131BD000E100E0002070470020704710B5024B80
S1131BE01868024B984710BD4C0100200F190000E3
S1131BF010B5024B5868024B984710BD4C010020A9
S1131C00F918000010B5024B9847024B9847FEE7BD
S1131C1005010000F51C000070477047F0B583B063
S1131C2001226B46D91D2A482A4B9847C1B22A4B38
S1131C301B78002B12D16B46DA790D2A24D00A2A9C
S1131C4022D0254B0120187000205870587818189D
S1131C50027158784018C0B2587015E01E4B5A787B
S1131C606846C4799A18147158784018C0B25870EC
S1131C700D2C0DD00A2C0BD0174B5B78DBB2C72B85
S1131C8002D90022144B5A70144B984703B0F0BD8C
S1131C90114D6B78023BDBB2114C4C27E35500230A
S1131CA02B704D22A3540F4E3000143004357B3278
S1131CB029000D4B9847E25D1632310004480B4B66
S1131CC09847C82200212800094B9847D4E7C0460A
S1131CD0100300209D070000540100207D1F000018
S1131CE0D40100202800002089210000650700009D
S1131CF09B21000070B5074C074A01212000074DC5
S1131D00A847074A00212000A8472000054B984710
S1131D1070BDC046100300201B1C0000810C000095
S1131D201D1C0000550C000043684B609A688A60D3
S1131D309A685160996008610368013303607047D1
S1131D4003694268816891608268416851605A6899
S1131D50904206D0002202611A68013A1A6018689B
S1131D60704782685A60F5E7704700008022520588
S1131D70034B1A60BFF34F8FBFF36F8F7047C0469A
S1131D8004ED00E072B6044A136801331360BFF334
S1131D904F8FBFF36F8F704704010020064B1B6801
S1131DA0002B01D172B6FEE7013B034A1360002BFE
S1131DB000D162B67047C04604010020EFF31080E2
S1131DC072B6704780F3108870470000000000006E
S1131DD0EFF309800E4B1A6820381060F0C04446B7
S1131DE04D4656465F46F0C008B572B600F03EF95F
S1131DF062B60CBC116808681030F0C8A046A94649
S1131E00B246BB4680F309882038F0C81847C0465C
S1131E10E802002010B5074B98470400064B98478A
S1131E20002803D080225205044B1A602000044B82
S1131E30984710BDBD1D0000751E000004ED00E0B4
S1131E40C51D00000A4B9B6A1B68002B09D1013396
S1131E50002B08D1064B9A6AD268D2685268DA62BB
S1131E6070470023F4E701225242014BDA62F7E79C
S1131E7024020020F8B53C4B9B6D002B67D13A4BF4
S1131E805D6D01355D65002D11D1384B9B6A1B6872
S1131E90002B01D072B6FEE7344A916A324BD86BFC
S1131EA09062D9631A6E01321A66314B98472F4BF0
S1131EB0DB6A9D423FD200242B4B5B6CDA6A9300B1
S1131EC09B189A00294B9B181B6B012B44D90124A6
S1131ED042E00124254B9B6A1B68002B2DD0002374
S1131EE0002B2CD1214B9B6ADB68DE6873689D4212
S1131EF02AD3371D38001F4B9847B36A002B03D0F1
S1131F00300018301B4B9847F26A174B1B6D9A42EE
S1131F1001D9154B1A6593009B189A001348303069
S1131F2080183900144B9847F26A0F4B5B6CDB6ADC
S1131F309A42CED2CEE70024CCE70133D0E7012287
S1131F4052420A4BDA62B7E7084AD362B4E7064A58
S1131F50536E013353660024034B9B6E002B00D059
S1131F6001242000F8BDC046A40200202402002061
S1131F70451E0000411D0000291D000070B5324BB4
S1131F809B6D002B01D172B6FEE7304B98472E4B68
S1131F909A6D013A9A659B6D002B50D12A4B1B6CAC
S1131FA0002B04D100242A4B9847200070BD002444
S1131FB0284B5B69002B23D0264B1B6ADC6820006E
S1131FC01830254EB047251D2800B047E26A1E4B45
S1131FD01B6D9A4201D91C4B1A6593009B189A00F9
S1131FE01C483030801829001C4B9847164B5B6CFA
S1131FF0DB6AE26A9A42DBD30122134B9A66D7E783
S1132000002C01D0164B98470F4B5C6E002C0AD164
S11320100D4B9B6E002B14D0124B98470124C2E742
S1132020013C002C07D0104B98470028F8D001221F
S1132030054B9A66F4E70022034B5A66E8E700244E
S1132040B1E70024AFE7C046A4020020851D0000CC
S11320509D1D000024020020411D0000291D0000D8
S1132060451E00006D1D0000751E000010B51D4BBF
S11320709B6D002B0FD11B4B00229A661B6D9A009F
S1132080D2189100184A5218126B002A09D1002B59
S113209005D0013BF3E70122124B9A6610BD72B6DC
S11320A0FEE7114A9900CC18A0001018446B64682C
S11320B044633032C91888000830121894420AD098
S11320C09A00D2189100084A5218526BD168054AF6
S11320D051641365E2E760688900034A521850634B
S11320E0EEE7C046A40200202402002010B500231D
S11320F0002802D000F004F8431C180010BDC046AC
S1132100414208401C2101231B04984201D3000CC6
S113211010391B0A984201D3000A08391B09984256
S113212001D30009043902A2105C401A7047C0466A
S11321301B1C1D1D1E1E1E1E1F1F1F1F1F1F1F1FBA
S113214070B500260C4D0D4C641BA410A64209D199
S1132150002600F059F90A4D0A4C641BA410A6424B
S113216005D170BDB300EB5898470136EEE7B300D4
S1132170EB5898470136F2E71424000014240000B9
S11321801424000018240000002310B59A4200D142
S113219010BDCC5CC4540133F8E7030082189342A9
S11321A000D1704719700133F9E700002E2E2F6813
S11321B0616C2F7372632F68616C5F61635F737905
S11321C06E632E63000000002E2E2F68616C2F7347
S11321D072632F68616C5F6164635F73796E632EF1
S11321E0630000002E2E2F68616C2F7372632F68BA
S11321F0616C5F6461635F73796E632E63000000DA
S11322002E2E2F68616C2F7372632F68616C5F666A
S11322106C6173682E6300002E2E2F68616C2F731F
S113222072632F68616C5F696F2E63002E2E2F68B6
S1132230616C2F7372632F68616C5F70776D2E63AE
S1132240000000002E2E2F68616C2F7372632F68BC
S1132250616C5F7370695F6D5F73796E632E630089
S11322602E2E2F68616C2F7372632F68616C5F74FC
S1132270696D65722E6300002E2E2F68616C2F73BA
S113228072632F68616C5F75736172745F617379D7
S11322906E632E63000000002E2E2F68616C2F7574
S11322A074696C732F7372632F7574696C735F6CCC
S11322B06973742E630000002E2E2F68616C2F75D5
S11322C074696C732F7372632F7574696C735F72A6
S11322D0696E676275666665722E6300004400422B
S11322E016000000000600000006000000000000C8
S11322F02E2E2F68706C2F61632F68706C5F616382
S11323002E63000000020000000000000000000036
S113231000000000000000000000000000000000B9
S11323202E2E2F68706C2F6164632F68706C5F6150
S113233064632E63000000002E2E2F68706C2F64DF
S113234061632F68706C5F6461632E63000000003A
S1132350FF000000FFFFFFFF2E2E2F68706C2F651B
S113236069632F68706C5F6569632E630000000009
S11323702E2E2F68706C2F6E766D6374726C2F68BE
S1132380706C5F6E766D6374726C2E630000000077
S1132390030000000400314000000300ADD8000039
S11323A00000000000000000000000000000000029
S11323B00000000000000000000000000000000019
S11323C000000000000000000C00200000000200DB
S11323D000000000090000012E2E2F68706C2F737E
S11323E06572636F6D2F68706C5F736572636F6D78
S11323F02E6300002E2E2F68706C2F74632F68706C
S11324006C5F74632E630000F8B5C046F8BC08BC6A
S11324109E467047CD000000F8B5C046F8BC08BC25
S10B24209E467047A500000070
S11324280000600300000000320000007C0000008F
S11324383E000000010068030000000000000000E6
S11324487D0000000000000050726F6365737369BB
S11324586E6720436F6D6D616E643A200000000062
S11324680000000000000000000000000000000060
S11324780000000000000000000000000000000050
S11324880000000000000000000000000000000040
S11324980000000000000000000000000000000030
S11324A80000000000000000000000000000000020
S11324B80000000000000000000000000000000010
S11324C80000000000000000000000000000000000
S11324D800000000000000000000000000000000F0
S11324E800000000000000000000000000000000E0
S11324F800000000000000000000000000000000D0
S113250800000000000000000000000000000000BF
S113251800000000000000000000000000000000AF
S10B252800000000AAAAAAAAFF
S9030000FC
