S01100004F50335341542831292E73726563D7
S1130000C84900201D010000190100001901000069
S113001000000000000000000000000000000000DC
S11300200000000000000000000000009D1F000010
S11300300000000000000000512000009520000096
S11300401901000019010000190100001901000044
S1130050291200004D1300001901000019010000CD
S11300601901000019010000F11500001901000038
S113007019010000491C00005D1C0000190100006A
S11300801901000019010000190100001901000004
S113009019010000190100001901000019010000F4
S11300A01901000010B5064C2378002B07D1054B2D
S11300B0002B02D0044800E000BF0123237010BDD0
S11300C0100100200000000008390000084B10B5A2
S11300D0002B03D00749084800E000BF0748036825
S11300E0002B00D110BD064B002BFBD09847F9E73D
S11300F00000000014010020083900000839000045
S11301000000000010B5024B9847024B984710BD01
S113011009050000391D0000FEE7000010B5124A71
S1130120124B9A4209D0114B0F4A03E0116819602F
S1130130043304320E498B42F8D30E4B02E0002202
S11301401A6004330C4A9342F9D30C4AFF210C4B36
S11301508B4393600B4A516880230B4353600A4BD3
S113016098470A4B9847FEE7083900000000002032
S11301701001002010010020C429002000ED00E03F
S11301800000000000400041D5350000D51C0000EF
S1130190044A116A80231B030B431362024A034B74
S11301A05A807047000400401B400000000C0040CF
S11301B010B5084A116A80239B000B431362064A58
S11301C0064B5A80064B9847020006490648074BDF
S11301D0984710BD0004004013400000000C00408C
S11301E0411C000000240042A0290020290A00002C
S11301F0044A116A80235B020B431362024A034BD5
S11302005A8070470004004017400000000C004072
S113021010B5044B9847002203490448044B9847FF
S113022010BDC046F10100000040004278290020C2
S1130230D105000010B5034A034B5A80034B98477D
S113024010BDC04603400000000C0040ED06000055
S1130250024AD36904210B43D36170470004004070
S113026010B5034B984703490348044B984710BD06
S113027051020000004000415829002039070000C5
S1130280F0B5CE46474680B5C022D205012454615C
S11302909460254B25499962C0273F069F62402000
S11302A0195CA14301252943C9B219543026995D2B
S11302B0313881468143884603218C466146404655
S11302C00843C1B29955022151619160184999625C
S11302D09F624127D95DA1432943C9B2D955995D8C
S11302E0323F394030273943C9B299558021C90278
S11302F05160104A9A62104A9A6252215A5C2C3E0A
S1130300B2435A545A5CA2432A43D2B25A541939BA
S11303105A5C4846824302200243D2B25A540CBC6F
S113032090469946F0BDC04600440041010000409B
S11303300200004000000240040002C0044A136AA4
S113034008210B431362034A034B5A807047C0468B
S1130350000400400E400000000C004010B5044BA7
S1130360984704490448054B9847054B984710BDE6
S11303703D030000000C00428829002055080000BD
S113038081020000044A136A20210B431362034ACA
S1130390034B5A807047C0460004004010400000E0
S11303A0000C004030B50F4B5822995C0125A9433D
S11303B001242143C9B299543C20195C493A914320
S11303C002221143C9B2195459215A5CAA43224347
S11303D0D2B25A541A5C4A390A4020210A43D2B292
S11303E01A5430BD0044004110B582B0064B984702
S11303F0002300931033054A05490648064CA047DC
S1130400064B984702B010BD850300002C01002064
S113041000140042EC280020D90B0000A5030000C2
S113042010B50248024B984710BDC04610E000E0EA
S113043075060000044A116A80235B000B431362B3
S1130440024A034B5A8070470004004013400000E6
S1130450000C004010B5054B9847054B9847020027
S113046004490548054B984710BDC04635040000B3
S1130470451C0000002000423C2900200D0800001B
S1130480054A116A80239B020B431362034B044AFF
S11304905A80044A5A80704700040040000C00400F
S11304A0184000001940000010B5034B9847034959
S11304B00348044B984710BD8104000000440042E7
S11304C07429002099050000044A116A8023DB0284
S11304D00B431362024A034B5A80704700040040E6
S11304E01A400000000C004010B5034B9847034924
S11304F00348044B984710BDC9040000004800425B
S11305007C2900202506000010B5154B9847C02211
S1130510D2058021C90151619160124B1248986241
S1130520C0200006986251614E215A5C012082432A
S11305305A540E4B98470E4B98470E4B98470E4B08
S113054098470E4B98470E4B98470E4B98470E4BC7
S113055098470E4B98470E4B98470E4B984710BD43
S1130560F910000000440041004000401102000066
S113057035020000610200005D030000E903000091
S11305802104000055040000B1010000A90400008A
S1130590E90400009101000070B504000D0000287A
S11305A00DD0002909D0012031220649064B984775
S11305B029002000054B984770BD0020F4E7002077
S11305C0F2E7C04640360000190D00003D0F000060
S11305D070B504000D0000280DD0002909D00120B9
S11305E039220649064B984729002000054B9847B5
S11305F070BD0020F4E70020F2E7C0465C3600003E
S1130600190D0000B5100000EFF31083036072B6FB
S1130610BFF35F8F7047BFF35F8F036883F3108866
S11306207047000070B504000D00002810D00029A8
S11306300CD0012032220C490C4B98472900200091
S11306400B4B984700280ED100230AE00020F1E765
S11306500020EFE7DA00A218002151609160013315
S1130660DBB2002BF6D070BD78360000190D000007
S11306706D11000010B5024B1860024B984710BD75
S11306803C0100201919000010B5044B1C68044BF0
S1130690984701002000034B984710BD3C010020FF
S11306A0ED1000002519000070B50125002407E0B5
S11306B00D4AB358002B00D0984770BD013AD5B20B
S11306C0AC42FAD82B195B10DAB2002AF5D1FF211B
S11306D00B40DE000449891949688142E8D0EDD213
S11306E00132D4B2ECE7C0464001002010B500232B
S11306F0002B03D00748084B984710BD074AD90080
S113070050180124644244600020885001339BB295
S1130710EEE7C046A9060000991100004001002040
S113072010B54369002B00D0984710BD10B58369FC
S1130730002B00D0984710BD70B504000D000028B0
S113074013D000290FD0012038220949094B9847BA
S113075029002000084B9847002803D1074B236049
S1130760074B636070BD0020EEE70020ECE7C04655
S113077094360000190D0000ED120000210700005E
S11307802D07000070B504000D00160000280ED0DF
S113079000290AD0012034220649074B98472368D0
S11307A0320029002000984770BD0020F3E70020A4
S11307B0F1E7C046AC360000190D000070B5040026
S11307C00D00160000280ED000290AD001203D2279
S11307D00649074B98476368320029002000984770
S11307E070BD0020F3E70020F1E7C046AC360000FE
S11307F0190D000010B54369002B00D0984710BDB7
S113080010B58369002B00D0984710BD70B5040063
S11308100D00002812D000290ED0012033220849EF
S1130820084B984729002000074B9847074B236043
S1130830074B6360002070BD0020EFE70020EDE768
S1130840C0360000190D00004D1B0000F507000024
S11308500108000070B504000D00002817D000291D
S113086013D0012040220B490B4B98476560201D93
S113087029000A4B9847002806DB094BA382094B41
S11308802361094BE360002070BD0020EAE70020EB
S1130890E8E7C046D8360000190D00000516000030
S11308A00080FFFF31090000F508000030B587B073
S11308B004000D00002815D0002911D00120B32216
S11308C009490A4B98472B6803936B680493AB68F8
S11308D001930593201D03A9054B984707B030BD2C
S11308E00020ECE70020EAE7D8360000190D0000EC
S11308F0C117000070B584B004000E001500431E3B
S11309009841C0B2A3220749074B984720000C38EE
S1130910002302930196039501A9044B984704B060
S113092070BDC046D8360000190D0000AD080000A7
S113093070B584B004000E001500431E9841C0B287
S113094087220749074B984720000C38029600235A
S11309500193039501A9044B984704B070BDC046A8
S1130960D8360000190D0000AD080000F8B506687F
S1130970002E02D0330000250CE0104B984718E0FD
S11309809F68BC466444A41A01348F68BC420BD2ED
S11309901D001B68002B07D05C689442F0D8A41A91
S11309A09F68BC466444F0E7B34203D02800044B7C
S11309B09847F8BD014B9847FBE7C046390D000046
S11309C0650D0000F8B50500446903695E1C066105
S11309D0037EDB0702D4037E9B070AD52B7E02220B
S11309E01343DBB22B76F8BD6F69E36820009847A8
S11309F03C00002CF7D06368F31AA2689342F2D348
S1130A002F0014373800064B9847237C012BEBD179
S1130A106660320021003800024B9847E4E7C04684
S1130A206D0D00006D09000070B504000D00002874
S1130A3012D000290ED001203B220849084B9847C8
S1130A4029002000074B984700232361064B2360AD
S1130A50002070BD0020EFE70020EDE7F436000031
S1130A60190D0000291A0000C509000010B5083846
S1130A7000230363436A002B00D0984710BD10B5D0
S1130A80083800230363C36A002B00D0984710BDC5
S1130A9010B504002C30044B9847236A083C002B03
S1130AA001D02000984710BD190E000070B5040055
S1130AB00E00150000281DD000291DD0002A1DD1CC
S1130AC000203C22FF321049104B98474423E25A3D
S1130AD00833E35A9A4213D1A6644C23E552002208
S1130AE0083BE252433B236320000830084B9847FD
S1130AF0280070BD0020E4E70020E2E70120E0E7E1
S1130B001C204042F5E7C0460C370000190D0000D8
S1130B107F15000070B504000200083A4423D35A3C
S1130B204C21525A93420DD00200016C083A5D1CCC
S1130B3044201552C95C2000044B98472000044B04
S1130B40984770BD034B9847FBE7C04677150000F4
S1130B507F15000087150000F0B585B004000D0076
S1130B601600002817D0002917D0002A17D100201A
S1130B70AC2252001249134B984703A8124B9847D2
S1130B80343420000194114B9847070003A8104BFC
S1130B90984700240BE00020EAE70020E8E7012062
S1130BA0E6E70134A4B2691801980A4B984721007A
S1130BB0A74201D9B442F4D3200005B0F0BDC04629
S1130BC00C370000190D000009060000590E000042
S1130BD017060000CD0D0000F8B504000D00160046
S1130BE01F00002826D0002926D0002A26D0002B5A
S1130BF026D100203A221549154B9847200034305D
S1130C003A003100134B984700281BD120000830CC
S1130C102900114B984700280BD1104B6360104BEF
S1130C202360104BA360104BE360104B2361104B07
S1130C306361F8BD0020DDE70020DBE70020D9E791
S1130C400120D7E70D204042F3E7C0460C370000EF
S1130C50190D0000810D0000D9140000590B00008B
S1130C60AD0A0000150B0000910A00006D0A000097
S1130C707F0A000010B50400431E9841C0B26122EF
S1130C800449054B984720000830044B984700203E
S1130C9010BDC0460C370000190D0000651500009A
S1130CA070B505000E001400431E9841C0B28322A3
S1130CB01649174B9847012E11D0002E04D0022E4E
S1130CC018D00D20404209E0AC62621E9441E2B2A9
S1130CD02800083001210F4B9847002070BD6C623A
S1130CE0621E9441E2B2280008300221094B984761
S1130CF00020F3E7EC62621E9441E2B2280008305F
S1130D000321044B98470020E8E7C0460C37000055
S1130D10190D000091150000002800D100BE704795
S1130D200368002B03D08B4203D01B68F9E7002033
S1130D3070470120FCE7000070B504000D00064B6D
S1130D40984701235840C0B239220449044B9847BC
S1130D5023682B60256070BD210D00002C37000036
S1130D60190D000003680B60016070470368002BD5
S1130D7003D01A680260180070470020FCE70000E6
S1130D8070B504000E001500002812D0002912D0FE
S1130D90002A12D1002028220A490B4B98476B1EC7
S1130DA02B420CD163600023A360E3602660002023
S1130DB070BD0020EFE70020EDE70120EBE70D20F8
S1130DC04042F5E74C370000190D000070B50400EF
S1130DD00D00002816D0002912D0012040220C4911
S1130DE00C4B9847A368E2689A420DD0626813409E
S1130DF02268D35C2B70A3680133A360002070BD0C
S1130E000020EBE70020E9E70A204042F7E7C0466C
S1130E104C370000190D000070B504000D00431E8E
S1130E209841C0B251220A490A4B98476368E26864
S1130E3013402268D554E368A2689A1A61688A420A
S1130E4001D9591AA1600133E360002070BDC04686
S1130E504C370000190D000010B50400431E9841E2
S1130E60C0B267220349044B9847E068A368C01ADC
S1130E7010BDC0464C370000190D000010B500230A
S1130E80002B01D0002010BD9A00D2189100054A11
S1130E908A58824202D00133DBB2F1E7014840189C
S1130EA0F1E7C0467037000010B50400431E9841B6
S1130EB0C0B2FA221E491F4B984720001E4B984788
S1130EC0002831D0637ADB09FCD1637ADB09FCD1D9
S1130ED023789B0707D500232370637ADB09FCD1B1
S1130EE0637ADB09FCD101232370637ADB09FCD12B
S1130EF0637ADB09FCD183682361637ADB09FCD163
S1130F00C3686361637ADB09FCD1027C2033E25459
S1130F10427C0133E254C388638043792370637A4B
S1130F20DB09FCD1002010BD0A204042FBE7C0468B
S1130F3084370000190D00007D0E000070B5050017
S1130F400C00431E9841C0B262220449044B9847E6
S1130F502C602000034B984770BDC04684370000C6
S1130F60190D0000A90E00000020704710B50B4BAE
S1130F70984702000020002806D07F22084900205C
S1130F80084B9847002010BDC3001B1A9900064B5C
S1130F90CB5C9A42F7D00130C0B2ECE7690F000095
S1130FA0B4370000190D00009837000070B5040034
S1130FB00D003A4BC01843425841C0B294223849FC
S1130FC0384B9847384B1A68D2081202E023DB00EA
S1130FD01A4036490B6849684901DB0E0B43FF216F
S1130FE00B401A43637EDB09FCD123789B0704D5AD
S1130FF000232370637EDB09FCD101232370637E0D
S1131000DB09FCD12285EA00521B9100284B5B18B6
S11310109A786270DA78A2701A79E2701A7C227572
S1131020DA8AA2841A8BE284997E2A22A154DB886C
S1131030A380637EDB09FCD1EB005B1B9A001C4B95
S11310409B18DB682361637EDB09FCD1EB005B1B2F
S11310509A00174B9B181B7A2372637EDB09FCD121
S1131060EB005B1B9A00124B9B185B8AA383637E85
S1131070DB09FCD1EB005B1B9A000D4B9B189B8A90
S11310802384637EDB09FCD1EB005D1BAA00084BC3
S11310909B185B782370002070BDC04600C0FFBD64
S11310A0B4370000190D0000246080002060800027
S11310B09837000070B505000C00431E9841C0B27B
S11310C0C5220649064B98472C602000054B9847DB
S11310D001002000044B984770BDC046B43700009F
S11310E0190D00006D0F0000AD0F0000642358437C
S11310F083001B185800704710B5064B5A685A6095
S1131100054B9847054B9847054B9847FF20054BDF
S1131110984710BD004000417D130000A91800004D
S1131120F5180000CD120000C379DB09FCD1C379A6
S1131130DB09FCD103789B0707D500230370C3792F
S1131140DB09FCD1C379DB09FCD101230370C3792A
S1131150DB09FCD1C379DB09FCD183700122427025
S11311600370C379DB09FCD10020704770B505001A
S11311700C00431E9841C0B249220449044B9847CD
S11311802C602000034B984770BDC046CC3700004C
S1131190190D000029110000204B5B78DB09FBD1FD
S11311A01E4B5B78DB09FBD11C4B1B789B070AD5D4
S11311B000221A4B1A70194B5B78DB09FBD1174BD1
S11311C05B78DB09FBD10122144B1A70134B5B785B
S11311D0DB09FBD1114B5B78DB09FBD10F4B002200
S11311E09A705A605A619A61DA611A7802210A4344
S11311F0D2B21A70094B5B78DB09FBD1084B102281
S113120080215A50BFF34F8FBFF36F8F0131FF31ED
S11312105A501A60034B18600020704700180040B1
S113122000E100E04801002030B583B0214B1A6989
S1131230D9680A400192019A1A611F4B1868431E2B
S11312409841C0B2D2221D491D4B984727E001396D
S1131250CDB2AC420DD82A195210D1B2FF2313409B
S1131260DB00184A9B5C834203D0F0DA0131CCB234
S1131270EFE701228240019B934301930198124BB3
S11312809847013840B2431C02D000250024E0E70F
S1131290084B1A69D9680A400192019A1A61019BA4
S11312A0002B05D00198084B9847013840B2EAE773
S11312B003B030BD0018004048010020EC370000A6
S11312C0190D0000E437000081350000C3070AD57A
S11312D0054B802252009A60832252025A60024BCC
S11312E05B78DB09FBD17047000C004070B505004A
S11312F00C0000281CD0104B99421BD00020462221
S11313000E490F4B98472C6162689E23134063601B
S11313100C4B1D600C4B202280215A50BFF34F8F81
S1131320BFF36F8F0131FF315A501A60002070BD36
S11313300020E4E70120E2E7004000410438000017
S1131340190D00004C01002000E100E010B50A4B2B
S1131350186803691A7DD20704D50368002B00D0EE
S1131360984710BD1A7D9207FBD502221A7543686F
S1131370002BF6D09847F4E74C010020064B1A7A6C
S1131380D2B21A725A7AD2B25A729A7AD2B29A7281
S1131390DA7AD2B2DA72704700040040024B9C46FB
S11313A06044800AC0B2704700F8FFBD10B583697D
S11313B09A7BD20702D55A7BD2070ED49A7B920726
S11313C002D55A7B92070DD49A7B520704D51A8A08
S11313D052070CD0084A1A8210BD01221A730368FE
S11313E09847F9E702221A7383689847F4E742683A
S11313F0198BC9B29047EFE70780FFFF10B5024B86
S113140098470730C0B210BD9D130000034B9842AB
S113141000D07047024B1960FBE7C046001400423D
S11314205001002010B50A4B984703000020002803
S113143006D0084A08490020084B9847002010BDF0
S113144002010749525C9342F9D00130C0B2EEE781
S11314509D1300004E0200006C380000190D0000BE
S11314602438000010B50400194B9847238ADB0B7D
S1131470FCD1238ADB0BFCD123689B0707D500230F
S11314802360238ADB0BFCD1238ADB0BFCD10123F1
S11314902360238ADB0BFCD1238ADB0BFCD1020102
S11314A00C4B9B185B682360238ADB0BFCD1020185
S11314B0084B9B189B686360238ADB0BFCD10001FB
S11314C0044B181883896381837B2372002010BD29
S11314D0251400002438000070B506000C00431EDB
S11314E09841C0B2B1221949194B98472000194BB1
S11314F09847051E01D0280070BDB461310020005A
S1131500154B98472000154B984743B2002B0ADB34
S11315101F21014001228A408021114C6250BFF3F7
S11315204F8FBFF36F8F002B07DB1F210140012278
S11315308A40C02149000A4C6250002BDBDB1F2388
S113154018401E3B8340064A1360D4E76C38000001
S1131550190D0000651400000D140000FD130000B7
S113156000E100E08269136802210B431360138ACF
S1131570DB0BFCD17047836989B219837047836997
S113158001225A737047836902225A73704700001C
S113159070B504000D001600431E9841C0B28422A9
S11315A092001149114B9847002D09D0022D07D004
S11315B0012D0FD1A369002E13D004225A7309E020
S11315C0A369002E07D101221A73A369002E05D145
S11315D002221A7370BD01225A73F6E702225A736B
S11315E0F8E704221A73F5E76C380000190D0000BF
S11315F010B5024B1868024B984710BD50010020EB
S1131600AD13000070B506000C000800624B98474B
S11316100023002B00D16CE00025002E00D174E0E3
S1131620002C00D16FE001205C4A5D495D4B984776
S1131630002D00D1ACE0238ADB0BFCD1238ADB0B29
S1131640FCD123689B0707D500232360238ADB0B87
S1131650FCD1238ADB0BFCD101232360238ADB0B1F
S1131660FCD1238ADB0BFCD134602B786A7812021C
S11316701A43AB781B041A43EB781B0613431C2252
S11316801340082B43D0002C00D17DE0002D00D165
S113169078E00120444A4249424B98472B786A78C3
S11316A012021A43AB781B041A43EB781B0613434C
S11316B03E4A13402360238ADB0BFCD12B796A79E1
S11316C012021A43AB791B041A43EB791B0613432A
S11316D0374A134080229202134363602B7BA37228
S11316E06B7B23722B795B0750D10123337100206C
S11316F070BD012802D00133DBB28AE71D012D4BF6
S113170038335D1989E700208EE700208CE7002C30
S113171036D0002D32D00120274A2149214B984749
S11317202B786A7812021A43AB781B041A43EB78BD
S11317301B0613431D4A13402360238ADB0BFCD191
S11317402B796A7912021A43AB791B041A43EB7999
S11317501B061343194A134363602B7A6A7A1202F5
S11317601A43AB7A1B041A43EB7A1B0613436361D7
S11317706B7B2372238ADB0BFCD1B3E70020CBE71E
S11317800020C9E7002085E7002083E70223ADE7B6
S11317900D204042ACE7C0469D130000CB0800007A
S11317A06C380000190D00009A080000FCFEFFFFD1
S11317B0BF3FFDFF24380000AB08000040000200DA
S11317C070B588B00D0004680B6803934B680493EC
S11317D00023059306930679002814D0002C10D01A
S11317E001202D4A2D492E4B9847238ADB0B4FD1DC
S11317F0238ADB0BFCD123689B0718D414204042B6
S113180044E00020EDE70020EBE7002226E05878D2
S113181000020143023303930132059289B221830A
S11318200598AB68984202D3069A934229D9A37BC0
S1131830DBB25A07E9D5228B92B20499002908D069
S1131840481C04900A70012E03D9881C0490120AC3
S11318504A70069A0192013206920122002ADFD1CF
S11318600699059A9142DBD3DB07D9D5039B002B5C
S113187005D0591C03911978012EC8D8CCE7094921
S1131880CAE7A37B9B07FCD00323A37308B070BDF6
S113189004204042FAE7C046290A00006C380000E0
S11318A0190D0000FF0100000F4B196A090C1A6A98
S11318B0920F920709040D4801400A430C490A4358
S11318C01A629A6902210A439A611A7F1D310A40F9
S11318D01A77054BDB681B07FBD5034A136A802183
S11318E00B4313627047C046000800400000FF0F1E
S11318F002030000024A936902218B4393617047FB
S113190000080040024B034A5A6005221A607047DF
S113191010E000E0FFFFFF0010B5014B984710BD39
S113192005190000080E0BE00B4B0C48586098603A
S1131930094B1B68DB03FBD5094B9C466144100033
S1131940421ED2B20028EFD1034B59609960024B7A
S11319501B68DB03FBD5704710E000E0FFFFFF00CE
S1131960010000FF10B5C3689A7BD20700D410BDF4
S113197001229A7303689847F9E770B50500046972
S1131980A37BDB0705D50123A3730368002B00D0D9
S11319909847637B9B0706D50223A3736B68002BD0
S11319A001D02800984770BD024B9C466044800AD1
S11319B0C0B2704700E0FFBD064B984203D0064B0F
S11319C0984203D07047054B1960F8E7034B596000
S11319D0F8E7C046002000420024004254010020E1
S11319E010B50D4B98470023012B0BD89A00D21841
S11319F091000A4A8A5C904202D00133DBB2F3E7D9
S1131A0058B207E0F822FF3205490020054B9847F9
S1131A100120404210BDC046A9190000000000206A
S1131A2088380000190D000070B506000C0008008D
S1131A303F4B98470500F4609F223E4901203E4BEE
S1131A409847E37BDB09FCD123889B0704D500235B
S1131A502380E37BDB09FCD101232380E37BDB09C7
S1131A60FCD1AA0052199100344B5B185A88228089
S1131A7019792172DB8863810C231340082B39D038
S1131A80002B43D12D4AAB0058198100080051188E
S1131A90898921831218138A6383012363733100B4
S1131AA02000274B98472000264B98470D30C0B2A2
S1131AB043B2002B0ADB1F21014001228A4080210E
S1131AC0214C6250BFF34F8FBFF36F8F002B07DBA6
S1131AD01F21014001228A40C02149001A4C625052
S1131AE0002B05DB1F2318401E3B8340164A13605E
S1131AF0002070BD114AAB0058198100080051182C
S1131B00C968A16112181369E361C6E7042BC4D143
S1131B100A49AB00581982008A18107B2076127C7F
S1131B2062765D19AB00C9180B7A2375B5E7C04618
S1131B30E119000088380000190D000000000020A1
S1131B40B9190000A919000000E100E070B5050012
S1131B500C000800354B98472C61E37BDB09FCD172
S1131B6023889B0704D500232380E37BDB09FCD176
S1131B7001232380E37BDB09FCD18200121891004E
S1131B802B4B5B185A88228019792172DB88638178
S1131B900C231340082B37D0002B41D1244A830057
S1131BA01E18B1000E005118898921839219138AD5
S1131BB06383290020001F4B984720001E4B984741
S1131BC00D30C0B243B2002B0ADB1F2101400122B9
S1131BD08A408021194C6250BFF34F8FBFF36F8F3F
S1131BE0002B07DB1F21014001228A40C02149004C
S1131BF0124C6250002B16DB1F2318401E3B8340FF
S1131C000E4A1360002070BD094A83001E18B100FB
S1131C100E005118C968A16192191369E361C8E7FC
S1131C2001204042EFE70020EDE7C046E119000043
S1131C3000000020B9190000A919000000E100E02B
S1131C40002070470020704710B5024B1868024B03
S1131C50984710BD540100207B19000010B5024BB9
S1131C605868024B984710BD5401002065190000C4
S1131C70F0B583B00700042211491248124B98476B
S1131C800AE0C025ED058026F601EE6164200F4CC4
S1131C90A047EE616420A0470A22694638000C4B35
S1131CA098470128EDD1074D042205490431280045
S1131CB0054CA047042200992800A047E1E7C0464C
S1131CC028000020EC280020850700008906000079
S1131CD01128000010B582B00E49C22292008B5820
S1131CE00D4803408B500D4B98470D4B98470022ED
S1131CF0082102200B4B9847030000220192023274
S1131D0000923E3208490948094CA047094B9847BC
S1131D10FEE7C04600E100E0FFFF00FF0501000010
S1131D20311E00004D2500009C380000711C00008D
S1131D30292C0000992C000070477047F0B5CE465E
S1131D40474680B583B001226B46D91D2E482F4BE0
S1131D509847C1B22E4B1B78002B12D16B46DA790F
S1131D600D2A24D00A2A22D0294B012018700020E1
S1131D70587058781818027158784018C0B25870C2
S1131D8015E0234B5A786846C4799A181471587828
S1131D904018C0B258700D2C0ED00A2C0CD01C4B1D
S1131DA05B78DBB2C72B02D90022194B5A7003B0FF
S1131DB00CBC90469946F0BD154C6378023BDBB2EF
S1131DC0144D4C27EB55002323704D22AB54124B7A
S1131DD099461800143004347B3221000F4B984785
S1131DE00F490C600023042200200E4EB047EA5D28
S1131DF01632494604480C4B9847C822002120005B
S1131E000A4B9847CBE7C046EC280020BD070000EA
S1131E105C010020DC010020300000201D360000A1
S1131E20BC29002095250000850700002F360000FE
S1131E3070B5074C074A01212000074DA847074AFF
S1131E4000212000A8472000054B984770BDC046DC
S1131E50EC2800203B1D0000A10C00003D1D0000EB
S1131E60750C000003000833436001225242826073
S1131E70C36003610023036070470023036170475C
S1131E8043684B609A688A609A68516099600861F7
S1131E90036801330360704730B50C68631C02D0DB
S1131EA00200083202E0026904E01A0053681D6867
S1131EB0AC42FAD253684B6099608A605160086101
S1131EC003680133036030BD03694268816891602F
S1131ED08268416851605A68904206D000220261CB
S1131EE01A68013A1A601868704782685A60F5E700
S1131EF082B000230193064B1B68013301D072B6F4
S1131F00FEE772B6019B002BFCD002B07047C046BE
S1131F100C01002000000000000000000000000090
S1131F200B4A13681868203080F30988022080F374
S1131F301488BFF36F8F3FBCAE4608BC04BC62B6C6
S1131F401847C046C046C046C046C046C046C04604
S1131F5088280020054B00221A6005490A600549BB
S1131F60054A116007221A607047C04610E000E07D
S1131F7018E000E0E703000014E000E010B5031FE0
S1131F80802464041C60043B1960043B024919600A
S1131F90143B1A60403810BDF11E00007047000069
S1131FA010B50C4B1968FF2212040A431A60196811
S1131FB0FF2212060A431A60074B98470022074B78
S1131FC01A60074B9847074B9847074B98470020E0
S1131FD010BDC04620ED00E0551F00000C0100209C
S1131FE0211F0000152F0000F11E00008022520561
S1131FF0034B1A60BFF34F8FBFF36F8F7047C04618
S113200004ED00E072B6044A136801331360BFF3B1
S11320104F8FBFF36F8F70470C010020064B1B6876
S1132020002B01D172B6FEE7013B034A1360002B7B
S113203000D162B67047C0460C010020EFF3108057
S113204072B6704780F310887047000000000000EB
S1132050EFF309800E4B1A6820381060F0C0444634
S11320604D4656465F46F0C008B572B600F052FFC2
S113207062B60CBC116808681030F0C8A046A946C6
S1132080B246BB4680F309882038F0C81847C046DA
S11320908828002010B5074B98470400064B984742
S11320A0002803D080225205044B1A602000044B00
S11320B0984710BD3D2000001D2D000004ED00E0F8
S11320C04520000010B5114A53071BD0D11D07232A
S11320D0994396239B015B1A9B180A000C490A60DA
S11320E000204860D318083B0724A3438B60586042
S11320F01860981A50601360C860086180231B063A
S11321004B6110BD96239B01E8E7C0462C020020DA
S1132110AC27002010B5124B1A68824219D35968B3
S11321205C18A04203D1406809185960180041683E
S11321304418A24211D10A4CA468A2420BD052689E
S1132140891841601A6812680260984200D01860C9
S113215010BD1300E0E70460F7E70260F5E7C0464E
S1132160AC27002070B504002F4B98472F4B9B6879
S1132170002B0FD02D4B5B6923424AD1002C0CD08D
S11321800834630709D007239C430834234204D04E
S113219072B6FEE7264B9847ECE7002C3BD0234B66
S11321A01B699C4239D8214B1D6801E02B001500A6
S11321B06A68944202D92A68002AF7D11B4A9268B5
S11321C095422CD01E6808362A681A606B681B1B5F
S11321D0102B08D92819420701D072B6FEE74360D4
S11321E06C60144B98476968104A13695B1A136151
S11321F0D268934201D20D4AD3600C4B5B690B4306
S11322006B6000232B600C4B9847730709D072B6A0
S1132210FEE70026F7E70026F5E70026F3E70026A9
S1132220F1E7300070BDC046012D0000AC2700204E
S1132230C520000015210000252E000070B50028DF
S113224020D00500083D6B680F4A52691A4201D13B
S113225072B6FEE7010008390968002901D072B698
S1132260FEE70838040093434360084B98476368CB
S1132270054A11698C46634413612800044B98474E
S1132280044B984770BDC046AC270020012D0000C8
S113229015210000252E000010B50400064B9847B8
S11322A0A26BE36B9A4204D00024044B98472000AD
S11322B010BD0124F9E7C046052000001D200000E0
S11322C010B50400054B9847A36B002B04D00024E1
S11322D0034B9847200010BD0124F9E705200000B6
S11322E01D20000070B504001600856B026C002AE6
S11322F00AD10368002B2ED140681B4B984700235A
S113230063600135A56370BD002E0ED18068174B44
S11323109847A368226C94466344A360626893421E
S11323201BD32368A3600020EBE7C0680F4B9847DA
S1132330236C5B42E268D218E26021688A4203D2CD
S1132340626894466344E360022E08D1002D08D0ED
S1132350013D0020D5E70020D3E70020D1E700208D
S1132360CFE70020CDE7C046253100001D36000030
S113237070B582B001900A00846C002C05D0A16B6A
S1132380E36B994203D372B6FEE772B6FEE7A16B24
S11323908B4203D80026300002B070BD4523E55CB3
S11323A06DB201A920000A4B984706006B1C0AD1A4
S11323B0636A002BEFD020002430064B9847002896
S11323C0E9D00126E7E701356DB24523E554E2E79C
S11323D0E5220000F92F000010B50C00026C002A61
S11323E00BD0C3689B18C36041688B4201D3036858
S11323F0C360C1682000014B984710BD1D36000022
S113240070B50500214B98474523EC5C64B20AE0A3
S11324106B6A002B18D0280024301D4B98470028E5
S11324200FD1013C64B2002C0EDDAB6C002BEFD05D
S113243000212800174B98470028F2D0164B9847E4
S1132440EFE7154B9847ECE7FF224523EA54134B7B
S113245098470E4B98474423EC5C64B201E0013C7E
S113246064B2002C0BDD2B69002B08D0280010303F
S1132470074B98470028F2D0074B9847EFE7FF2215
S11324804423EA54054B984770BDC046052000001C
S1132490F92F000071230000F93000001D20000016
S11324A070B504000D00002823D0184B984722680B
S11324B0E36B206C01005943511861600021A16352
S11324C0A260013B4343D318E360FF234422A35497
S11324D00132A354002D11D12369002B05D0200013
S11324E010300B4B9847002805D10A4B9847012020
S11324F070BD72B6FEE7084B9847F6E7200010302F
S1132500064DA84720002430A847EEE70520000028
S1132510F92F00001D200000ED1F0000651E0000C3
S113252070B51D00049C00290BD02260E063216477
S113253001212000044B98475023E5540023A36451
S113254070BD2460F2E7C046A1240000F0B583B05A
S113255006000F001500002801D172B6FEE700291D
S113256002D00800704300E000205430074B984725
S1132570041E07D00200543200902B0039003000B2
S1132580034DA847200003B0F0BDC04665210000FC
S113259021250000F0B585B004000F0001921E0053
S11325A0002806D0002906D00125002D0AD172B6D4
S11325B0FEE772B6FEE7036C002B01D10125F4E7B8
S11325C00025F2E7022E03D0002D06D172B6FEE7F5
S11325D0E36B012BF8D00025F6E7444B984700281D
S11325E003D1019B002B00D00025002D01D172B630
S11325F0FEE7002542E03200390020003C4B9847BA
S1132600A36C002B0CD0310020003A4B98470028D3
S113261001D0394B9847394B9847012005B0F0BD9C
S1132620636A002B08D020002430354B98470028DB
S1132630F1D0314B9847EEE70028ECD02E4B984769
S1132640E9E72E4B98470020E8E72C4B984701A96F
S113265002A82C4B9847002841D120002A4B9847C8
S1132660002836D0200010300199284B98472000CC
S1132670274B9847274B9847002827D0264B984745
S1132680A36BE26B9342B6D3022EB4D0019B002B12
S1132690D7D0002D03D102A8204B98470135174B02
S11326A098471F4B98471C4B98474423E35C5BB205
S11326B0013302D100224423E2544523E35C5BB29C
S11326C00133C2D100224523E254BEE70A4B9847A6
S11326D0D4E720000E4B98470E4B9847CEE72000D6
S11326E00B4B98470B4B9847002097E705310000A8
S11326F0E522000071230000ED1F00001D200000F2
S1132700F92F00008930000099220000952F000065
S113271001240000252E000005200000793000006F
S1132720012D0000F0B583B00400009117001D00D6
S1132730002807D0009B002B06D00123002B0AD1D0
S113274072B6FEE772B6FEE7036C002B01D10133CB
S1132750F4E70023F2E7022D03D0002B06D172B672
S1132760FEE7E26B012AF8D00023F6E7234B9847F3
S11327700190A36BE26B934201D3022D32D1452326
S1132780E65C76B22A00009920001D4B9847731C22
S113279022D1A36C002B10D029002000194B98479C
S11327A0002821D0002F21D001233B60012401986F
S11327B0154B9847200003B0F0BD636A002B17D077
S11327C020002430114B9847002813D0002F13D039
S11327D001233B600124EAE7731C5BB24522A35446
S11327E00124E4E70024E2E70124E0E70124DEE732
S11327F00124DCE70124DAE70124D8E73D200000C6
S1132800E52200007123000045200000F92F00009C
S1132810F0B585B004000E000192002806D000290E
S113282006D00125002D0AD172B6FEE772B6FEE786
S1132830036C002B01D10125F4E70025F2E73E4BA0
S11328409847002803D1019B002B00D00025002DC0
S113285001D172B6FEE700272BE031002000374B90
S11328609847013DA5632369002B07D02000103051
S1132870334B9847002801D0324B9847324B984746
S1132880012005B0F0BD304B98470020F9E702A8BD
S11328902E4B9847013716E000224423E2541DE0F2
S11328A000224523E2541EE02000294B9847294B7F
S11328B09847294B9847A56B002DCED1019B002B3F
S11328C0E1D0002FE3D0204B9847244B9847224B6C
S11328D098474423E35C5BB20133DDD04523E35CDA
S11328E05BB20133DCD0184B984701A902A81C4BFA
S11328F09847002813D120001A4B98470028D3D0BA
S1132900200024300199184B98472000104B984719
S1132910104B98470028CCD10A4B9847C9E72000B0
S11329200B4B98470B4B984720000E4B98470028B9
S1132930BFD00020A5E7C04605310000D923000020
S1132940F92F0000ED1F00001D2000007930000069
S113295001240000252E000005200000012D0000A8
S113296089300000C1220000952F000070B50400DA
S11329700D001600114B98474423E35C5BB201330E
S11329800DD04523E35C5BB201330CD00C4B98476C
S1132990A36B002B0BD020000A4B984770BD00227C
S11329A04423E254EDE700224523E254EEE72000FD
S11329B0243032002900044B9847ECE7052000003E
S11329C01D20000001240000C12F00000A4B9B6A57
S11329D01B68002B09D10133002B08D1064B9A6ADE
S11329E0D268D2685268DA6270470023F4E70122A1
S11329F05242014BDA62F7E7C4270020F0B5C6461D
S1132A0000B582B000900F0015000193089C0A9E47
S1132A109200A521306B1F4B98471F4BEB189B006E
S1132A20326B944663440722934398460023072B52
S1132A3009D8F9180878F218343210700A78002A84
S1132A4001D00133F3E700223B23F254042C00D9D4
S1132A500424F46274640025B564301D0F4FB84734
S1132A6030001830B847366105231C1BB461766208
S1132A70F5644B33F554019A00994046084B984746
S1132A803060099B002B00D01E6002B004BC90464D
S1132A90F0BDC0462F360000FFFFFF3F7B1E000045
S1132AA07D1F000010B5034B1B6B012BFBD9024BA0
S1132AB09847F8E7C4270020ED1F0000F0B5C6468C
S1132AC000B5002408E0A3001B199A000F48303019
S1132AD080180F4B98470134042CF4D90D4D14235E
S1132AE09846A84440460A4CA0472F00283738008F
S1132AF0A047064E30001430A0473000A04743469C
S1132B00B362EF6304BC9046F0BDC046C427002006
S1132B10651E00004428002010B504001F4B984790
S1132B201F4B1A6C01321A645B6C002B2BD01C4BAC
S1132B309B6C002B07D11A4B5B6CDB6AE26A9342F5
S1132B4001D8174B5C641649CB6C0133CB64E36347
S1132B50E26A0B6D9A4200D90A65211D93009B1805
S1132B609A001048303080180F4B98470F4B984705
S1132B700B4B9B6C002B05D0094B5B6CDA6AE36A48
S1132B809A4208D310BD064B5C641B6C012BDAD14E
S1132B90074B9847D7E7074B9847F3E70520000012
S1132BA044280020C4270020811E00001D200000AE
S1132BB0BD2A0000ED1F000070B504000D00154B88
S1132BC05E6D586C0430144B9847631C12D0341952
S1132BD0104B5B6C5C60A64215D8104DA86A0D4B77
S1132BE0596C04310E4B9847EB6A9C4211D20B4B43
S1132BF0DC620EE0002DEAD0064B596C0431074824
S1132C00084B984705E0034BD86B596C0431044BCF
S1132C10984770BD44280020C91E0000C427002026
S1132C20991E0000811E0000F0B587B00490059144
S1132C3014001F009000144B9847061E1ED0542009
S1132C40114B9847051E15D00663002D18D000239C
S1132C50039302950D9B01930C9B00933B00220070
S1132C6005990498094CA0472800094B984701206E
S1132C7007B0F0BD3000074B9847E6E70025E4E7CE
S1132C8001204042F4E7C04665210000FD29000010
S1132C90192B00003D22000010B582B0114B5C33AB
S1132CA001930023009340220F491048104CA04781
S1132CB0012805D0012806D0431C11D002B010BD54
S1132CC00C4B9847F6E772B6012252420A4BDA627D
S1132CD0044B02329A6400225A65084B9847EDE788
S1132CE072B6FEE744280020A0380000A52A0000A0
S1132CF0292C000059320000C4270020A11F000025
S1132D00024A936D013393657047C04644280020FE
S1132D10014B586D7047C04644280020F8B53C4B21
S1132D209B6D002B67D13A4B5D6D01355D65002DC0
S1132D3011D1384B9B6A1B68002B01D072B6FEE799
S1132D40344A916A324BD86B9062D9631A6E01325D
S1132D501A66314B98472F4BDB6A9D423FD20024C1
S1132D602B4B5B6CDA6A93009B189A00294B9B18D7
S1132D701B6B012B44D9012442E00124254B9B6A9F
S1132D801B68002B2DD00023002B2CD1214B9B6AD8
S1132D90DB68DE6873689D422AD3371D38001F4BF9
S1132DA09847B36A002B03D0300018301B4B984768
S1132DB0F26A174B1B6D9A4201D9154B1A659300A1
S1132DC09B189A001348303080183900144B9847E8
S1132DD0F26A0F4B5B6CDB6A9A42CED2CEE70024D8
S1132DE0CCE70133D0E7012252420A4BDA62B7E75B
S1132DF0084AD362B4E7064A536E0133536600248B
S1132E00034B9B6E002B00D001242000F8BDC0466C
S1132E1044280020C4270020CD290000C91E00003A
S1132E20811E000070B5324B9B6D002B01D172B630
S1132E30FEE7304B98472E4B9A6D013A9A659B6D8D
S1132E40002B50D12A4B1B6C002B04D100242A4B9D
S1132E509847200070BD0024284B5B69002B23D0C9
S1132E60264B1B6ADC6820001830254EB047251D10
S1132E702800B047E26A1E4B1B6D9A4201D91C4BD5
S1132E801A6593009B189A001C483030801829005A
S1132E901C4B9847164B5B6CDB6AE26A9A42DBD3A5
S1132EA00122134B9A66D7E7002C01D0164B9847A2
S1132EB00F4B5C6E002C0AD10D4B9B6E002B14D073
S1132EC0124B98470124C2E7013C002C07D0104B59
S1132ED098470028F8D00122054B9A66F4E70022AF
S1132EE0034B5A66E8E70024B1E70024AFE7C04685
S1132EF044280020052000001D200000C4270020D5
S1132F00C91E0000811E0000CD290000ED1F000035
S1132F101D2D000010B51D4B9B6D002B0FD11B4BBD
S1132F2000229A661B6D9A00D2189100184A521812
S1132F30126B002A09D1002B05D0013BF3E70122D3
S1132F40124B9A6610BD72B6FEE7114A9900CC186E
S1132F50A0001018446B646844633032C9188800B8
S1132F600830121894420AD09A00D2189100084AE4
S1132F705218526BD168054A51641365E2E76068E0
S1132F808900034A52185063EEE7C04644280020E3
S1132F90C427002010B50C00002801D172B6FEE74A
S1132FA0044B596C1831044B984701212000034B02
S1132FB0984710BD44280020991E0000B92B00003A
S1132FC070B50C00150000280DD0084B596C183151
S1132FD0074B9847002D01D00124644229002000AA
S1132FE0044B984770BD72B6FEE7C04644280020E3
S1132FF0811E0000B92B000070B5C368DC68002C8A
S113300027D0250018352800174B9847174B9B6D80
S1133010002B20D1251D2800134B9847E26A134B3F
S11330201B6D9A4201D9114B1A6593009B189A00A3
S11330300F483030801829000E4B9847E26A0B4B3A
S11330405B6CDB6A9A420CD90122084B9A66012018
S113305070BD72B6FEE7290005481430054B984749
S1133060ECE70020F4E7C046C91E00004428002015
S1133070C4270020811E0000024B1A6E02605B6DA3
S11330804360704744280020F8B505000C00002870
S11330901AD000291AD0144B9847144B586D6968FC
S11330A0421A23685E1C1AD0104E366E2F68B7423F
S11330B001D0884215D29A420AD300232360012406
S11330C00B4B98472000F8BD72B6FEE772B6FEE7D8
S11330D09B1A23602800074B98470024F0E700243C
S11330E0EEE70124ECE7C046052000004428002058
S11330F01D200000793000000122014B9A667047C0
S113310044280020064B9B6C002B05D0044B9B6D80
S1133110002B03D1022070470120FCE70020FAE7CE
S11331204428002070B5041E2CD0194B5B6C9842C7
S113313001D072B6FEE7836C002B01D172B6FEE7B4
S1133140013B8364C26A416C8A421DD0002B1DD1AD
S1133150051D28000F4B9847636CE3620522D21AC1
S1133160A2610B4A126D934201D9094A13659A0070
S1133170D3189A000848303080182900074B984724
S1133180012070BD0020FCE70020FAE70020F8E7EA
S113319044280020C91E0000C4270020811E00000E
S11331A0064B1A68136859424B410360002B02D145
S11331B0D368186870470020FCE7C046B028002098
S11331C010B54160006191420CD8D21A83699A42C9
S11331D001D3012010E0011D094B5868094B9847A1
S11331E0002009E09A4201D2994206D2011D044B03
S11331F01868044B9847002010BD0120FCE7C04626
S1133200B0280020991E0000F8B50E4B98470E4BCD
S11332109B68002B02D00D4B9847F8BD0A4C260042
S11332200C3630000A4FB847250020352800B8472F
S11332302660656000220C210220064B9847A0609E
S1133240E9E7C04605200000B02800201D2000004A
S1133250651E00004D25000010B582B00C4B984748
S11332600C4B9B68002B0ED00A4B34330193022382
S113327000930023402208490848094CA04700282D
S113328003D172B6FEE70020F9E702B010BDC046D4
S113329009320000B0280020E03800005D3500004D
S11332A0292C000030B585B004001D00002814D07E
S11332B0134B9868002821D00191029203940529A8
S11332C015DC104B9847022809D00D4B9868002351
S11332D0002201A90C4CA0470EE072B6FEE7084B91
S11332E098680023089A01A9074CA04704E000232A
S11332F02A0001A9054CA04705B030BD0020FBE71A
S1133300B028002005310000952500002527000085
S113331070B582B0174B1B681A68002A23D0DB688B
S11333201E68DC68251D2800134B98472000636A3B
S11333309847E369012BEDD1A369F3189E4207D2A4
S1133340636024610B4B186829000C4B9847E1E734
S113335000230093320000212000094CA0470028DC
S1133360D8D172B6FEE7034A51681160536002B0C7
S113337070BDC046B0280020C91E0000991E000080
S1133380A532000070B50500084B98470400084BAF
S11333909B6B984205D300232B60054B9C63200054
S11333A070BD044B984701232B60F6E7112D0000F4
S11333B0B02800201133000070B582B005000E0063
S11333C0114B1B68DB68DC68201D104B9847E369D0
S11333D0012B04D0636A2000984702B070BDA36932
S11333E059192B0032002000094EB0470028F1D0B3
S11333F0002300932A0000212000064DA84700283E
S1133400E8D172B6FEE7C046B0280020C91E00000D
S1133410C1310000A532000070B582B005000C0077
S1133420164B984701A8164B98470600019B002BA2
S113343021D1002C01D1A84213D2002C05D0114B6C
S11334405B681C6863425C41E4B2A91B0D4B98683D
S113345022000D4B98470D4B9847002808D002B026
S113346070BD0A4B984731002800094B9847F6E78E
S1133470084B9847F3E7054B9847F0E7012D000008
S113348085330000B02800206D290000252E00009F
S1133490B9330000ED1F000030B587B0274B9868A2
S11334A0002203A9264B9847002845D0039B002BF4
S11334B0F4DB059C6369002B02D0201D214B984747
S11334C002A8214B9847039B092BE7D89B001F4A6E
S11334D0D3589F46049BA269944663441900049BF5
S11334E0020020001A4DA8470028D7D02000636AA4
S11334F09847E369012BD1D1049BA1698C466344AD
S11335001A000023009300212000124CA047002839
S1133510C4D172B6FEE70499A161002906D041180E
S11335200300020020000A4CA047B7E772B6FEE78A
S11335302000094B9847B1E707B030BDB028002000
S113354011280000C91E000085330000B8380000AF
S1133550C1310000A53200003D22000000B583B057
S113356001A8044B98470199034B9847034B98478C
S1133570F6E7C046A1310000193400009934000078
S113358010B50023002802D000F004F8431C1800F2
S113359010BDC046414208401C2101231B0498422F
S11335A001D3000C10391B0A984201D3000A0839D0
S11335B01B09984201D30009043902A2105C401A85
S11335C07047C0461B1C1D1D1E1E1E1E1F1F1F1FD5
S11335D01F1F1F1F70B500260C4D0D4C641BA4103B
S11335E0A64209D1002600F07FF90A4D0A4C641B5B
S11335F0A410A64205D170BDB300EB58984701361C
S1133600EEE7B300EB5898470136F2E7F4380000D0
S1133610F4380000F4380000F8380000002310B536
S11336209A4200D110BDCC5CC4540133F8E70300C6
S11336308218934200D1704719700133F9E70000F2
S11336402E2E2F68616C2F7372632F68616C5F611B
S1133650635F73796E632E63000000002E2E2F6863
S1133660616C2F7372632F68616C5F6164635F7355
S1133670796E632E630000002E2E2F68616C2F7309
S113368072632F68616C5F6461635F73796E632E2C
S1133690630000002E2E2F68616C2F7372632F68F5
S11336A0616C5F666C6173682E6300002E2E2F6858
S11336B0616C2F7372632F68616C5F696F2E630096
S11336C02E2E2F68616C2F7372632F68616C5F708C
S11336D0776D2E63000000002E2E2F68616C2F730F
S11336E072632F68616C5F7370695F6D5F73796E6D
S11336F0632E63002E2E2F68616C2F7372632F6804
S1133700616C5F74696D65722E6300002E2E2F68E4
S1133710616C2F7372632F68616C5F75736172746F
S11337205F6173796E632E63000000002E2E2F6894
S1133730616C2F7574696C732F7372632F75746960
S11337406C735F6C6973742E630000002E2E2F68F7
S1133750616C2F7574696C732F7372632F75746940
S11337606C735F72696E676275666665722E63005C
S1133770004400421600000000060000000600009D
S1133780000000002E2E2F68706C2F61632F68706C
S11337906C5F61632E630000000200000000000003
S11337A00000000000000000000000000000000015
S11337B0000000002E2E2F68706C2F6164632F6848
S11337C0706C5F6164632E63000000002E2E2F680E
S11337D0706C2F6461632F68706C5F6461632E6327
S11337E000000000FF000000FFFFFFFF2E2E2F68E7
S11337F0706C2F6569632F68706C5F6569632E63F5
S1133800000000002E2E2F68706C2F6E766D63748E
S1133810726C2F68706C5F6E766D6374726C2E635D
S11338200000000003000000040031400000030019
S1133830ADD80000000000000000000000000000FF
S11338400000000000000000000000000000000074
S11338500000000000000000000000000C00200038
S11338600000020000000000090000012E2E2F6855
S1133870706C2F736572636F6D2F68706C5F736506
S113388072636F6D2E6300002E2E2F68706C2F7480
S1133890632F68706C5F74632E630000726376003C
S11338A049444C4500000000092563092575092594
S11338B0750925750D0A0000D4340000D4340000C5
S11338C0D43400009C34000016350000303500006C
S11338D0D4340000D43400009C34000016350000B9
S11338E0546D722053766300F8B5C046F8BC08BC2A
S11338F09E467047CD000000F8B5C046F8BC08BC31
S10B39009E467047A50000007B
S11339080000600300000000320000007C0000009A
S11339183E000000010068030000000000000000F1
S11339287D0000000000000068656C7074657374A5
S113393850726F63657373696E6720436F6D6D6151
S11339486E643A200000000000000000000000003F
S1133958000000000000000000000000000000005B
S1133968000000000000000000000000000000004B
S1133978000000000000000000000000000000003B
S1133988000000000000000000000000000000002B
S1133998000000000000000000000000000000001B
S11339A8000000000000000000000000000000000B
S11339B800000000000000000000000000000000FB
S11339C800000000000000000000000000000000EB
S11339D800000000000000000000000000000000DB
S11339E800000000000000000000000000000000CB
S11339F800000000000000000000000000000000BB
S1133A08000000000000000000000000AAAAAAAA02
S9030000FC
